{
  "_format": "hh-sol-artifact-1",
  "contractName": "EvidenceStorage",
  "sourceName": "contracts/EvidenceStorage.sol",
  "abi": [
    {
      "anonymous": false,
      "inputs": [
        {
          "indexed": false,
          "internalType": "uint256",
          "name": "id",
          "type": "uint256"
        },
        {
          "indexed": true,
          "internalType": "address",
          "name": "submittedBy",
          "type": "address"
        },
        {
          "indexed": false,
          "internalType": "string",
          "name": "ipfsHash",
          "type": "string"
        },
        {
          "indexed": false,
          "internalType": "uint256",
          "name": "timestamp",
          "type": "uint256"
        }
      ],
      "name": "EvidenceSubmitted",
      "type": "event"
    },
    {
      "inputs": [],
      "name": "evidenceCount",
      "outputs": [
        {
          "internalType": "uint256",
          "name": "",
          "type": "uint256"
        }
      ],
      "stateMutability": "view",
      "type": "function"
    },
    {
      "inputs": [
        {
          "internalType": "uint256",
          "name": "",
          "type": "uint256"
        }
      ],
      "name": "evidences",
      "outputs": [
        {
          "internalType": "string",
          "name": "ipfsHash",
          "type": "string"
        },
        {
          "internalType": "uint256",
          "name": "timestamp",
          "type": "uint256"
        },
        {
          "internalType": "address",
          "name": "submittedBy",
          "type": "address"
        }
      ],
      "stateMutability": "view",
      "type": "function"
    },
    {
      "inputs": [
        {
          "internalType": "uint256",
          "name": "id",
          "type": "uint256"
        }
      ],
      "name": "getEvidence",
      "outputs": [
        {
          "internalType": "string",
          "name": "",
          "type": "string"
        },
        {
          "internalType": "uint256",
          "name": "",
          "type": "uint256"
        },
        {
          "internalType": "address",
          "name": "",
          "type": "address"
        }
      ],
      "stateMutability": "view",
      "type": "function"
    },
    {
      "inputs": [
        {
          "internalType": "string",
          "name": "ipfsHash",
          "type": "string"
        }
      ],
      "name": "submitEvidence",
      "outputs": [],
      "stateMutability": "nonpayable",
      "type": "function"
    }
  ],
  "bytecode": "0x608060405234801561001057600080fd5b50610aef806100206000396000f3fe608060405234801561001057600080fd5b506004361061004c5760003560e01c80632e4546cd14610051578063a2ed5af014610083578063bac91e2e146100a1578063c956f143146100bd575b600080fd5b61006b600480360381019061006691906104a1565b6100ef565b60405161007a939291906105ae565b60405180910390f35b61008b6101c1565b60405161009891906105ec565b60405180910390f35b6100bb60048036038101906100b6919061066c565b6101c7565b005b6100d760048036038101906100d291906104a1565b61032c565b6040516100e6939291906105ae565b60405180910390f35b6000602052806000526040600020600091509050806000018054610112906106e8565b80601f016020809104026020016040519081016040528092919081815260200182805461013e906106e8565b801561018b5780601f106101605761010080835404028352916020019161018b565b820191906000526020600020905b81548152906001019060200180831161016e57829003601f168201915b5050505050908060010154908060020160009054906101000a900473ffffffffffffffffffffffffffffffffffffffff16905083565b60015481565b600160008154809291906101da90610748565b9190505550604051806060016040528083838080601f016020809104026020016040519081016040528093929190818152602001838380828437600081840152601f19601f8201169050808301925050505050505081526020014281526020013373ffffffffffffffffffffffffffffffffffffffff168152506000806001548152602001908152602001600020600082015181600001908161027d919061096b565b506020820151816001015560408201518160020160006101000a81548173ffffffffffffffffffffffffffffffffffffffff021916908373ffffffffffffffffffffffffffffffffffffffff1602179055509050503373ffffffffffffffffffffffffffffffffffffffff167fc076c4d0e621526d8f4135fe68bcb6f5fe460a2af872fe9f0b6d5aaf61a8c61a6001548484426040516103209493929190610a79565b60405180910390a25050565b60606000806000806000868152602001908152602001600020604051806060016040529081600082018054610360906106e8565b80601f016020809104026020016040519081016040528092919081815260200182805461038c906106e8565b80156103d95780601f106103ae576101008083540402835291602001916103d9565b820191906000526020600020905b8154815290600101906020018083116103bc57829003601f168201915b50505050508152602001600182015481526020016002820160009054906101000a900473ffffffffffffffffffffffffffffffffffffffff1673ffffffffffffffffffffffffffffffffffffffff1673ffffffffffffffffffffffffffffffffffffffff16815250509050806000015181602001518260400151935093509350509193909250565b600080fd5b600080fd5b6000819050919050565b61047e8161046b565b811461048957600080fd5b50565b60008135905061049b81610475565b92915050565b6000602082840312156104b7576104b6610461565b5b60006104c58482850161048c565b91505092915050565b600081519050919050565b600082825260208201905092915050565b60005b838110156105085780820151818401526020810190506104ed565b60008484015250505050565b6000601f19601f8301169050919050565b6000610530826104ce565b61053a81856104d9565b935061054a8185602086016104ea565b61055381610514565b840191505092915050565b6105678161046b565b82525050565b600073ffffffffffffffffffffffffffffffffffffffff82169050919050565b60006105988261056d565b9050919050565b6105a88161058d565b82525050565b600060608201905081810360008301526105c88186610525565b90506105d7602083018561055e565b6105e4604083018461059f565b949350505050565b6000602082019050610601600083018461055e565b92915050565b600080fd5b600080fd5b600080fd5b60008083601f84011261062c5761062b610607565b5b8235905067ffffffffffffffff8111156106495761064861060c565b5b60208301915083600182028301111561066557610664610611565b5b9250929050565b6000806020838503121561068357610682610461565b5b600083013567ffffffffffffffff8111156106a1576106a0610466565b5b6106ad85828601610616565b92509250509250929050565b7f4e487b7100000000000000000000000000000000000000000000000000000000600052602260045260246000fd5b6000600282049050600182168061070057607f821691505b602082108103610713576107126106b9565b5b50919050565b7f4e487b7100000000000000000000000000000000000000000000000000000000600052601160045260246000fd5b60006107538261046b565b91507fffffffffffffffffffffffffffffffffffffffffffffffffffffffffffffffff820361078557610784610719565b5b600182019050919050565b7f4e487b7100000000000000000000000000000000000000000000000000000000600052604160045260246000fd5b60008190508160005260206000209050919050565b60006020601f8301049050919050565b600082821b905092915050565b6000600883026108217fffffffffffffffffffffffffffffffffffffffffffffffffffffffffffffffff826107e4565b61082b86836107e4565b95508019841693508086168417925050509392505050565b6000819050919050565b600061086861086361085e8461046b565b610843565b61046b565b9050919050565b6000819050919050565b6108828361084d565b61089661088e8261086f565b8484546107f1565b825550505050565b600090565b6108ab61089e565b6108b6818484610879565b505050565b5b818110156108da576108cf6000826108a3565b6001810190506108bc565b5050565b601f82111561091f576108f0816107bf565b6108f9846107d4565b81016020851015610908578190505b61091c610914856107d4565b8301826108bb565b50505b505050565b600082821c905092915050565b600061094260001984600802610924565b1980831691505092915050565b600061095b8383610931565b9150826002028217905092915050565b610974826104ce565b67ffffffffffffffff81111561098d5761098c610790565b5b61099782546106e8565b6109a28282856108de565b600060209050601f8311600181146109d557600084156109c3578287015190505b6109cd858261094f565b865550610a35565b601f1984166109e3866107bf565b60005b82811015610a0b578489015182556001820191506020850194506020810190506109e6565b86831015610a285784890151610a24601f891682610931565b8355505b6001600288020188555050505b505050505050565b82818337600083830152505050565b6000610a5883856104d9565b9350610a65838584610a3d565b610a6e83610514565b840190509392505050565b6000606082019050610a8e600083018761055e565b8181036020830152610aa1818587610a4c565b9050610ab0604083018461055e565b9594505050505056fea2646970667358221220781cfe202697524eba3b48e785dab018ce9df2c6d58dc534126526b9e5b9269f64736f6c63430008120033",
  "linkReferences": {},
  "deployedLinkReferences": {}
}